{
  "_format": "hh-sol-artifact-1",
  "contractName": "Eleicao",
  "sourceName": "contracts/Eleicao.sol",
  "abi": [
    {
      "inputs": [],
      "stateMutability": "nonpayable",
      "type": "constructor"
    },
    {
      "anonymous": false,
      "inputs": [
        {
          "indexed": true,
          "internalType": "uint256",
          "name": "candidatoId",
          "type": "uint256"
        }
      ],
      "name": "VotoRegistrado",
      "type": "event"
    },
    {
      "inputs": [
        {
          "internalType": "uint256",
          "name": "",
          "type": "uint256"
        }
      ],
      "name": "candidatos",
      "outputs": [
        {
          "internalType": "uint256",
          "name": "id",
          "type": "uint256"
        },
        {
          "internalType": "string",
          "name": "nome",
          "type": "string"
        },
        {
          "internalType": "uint256",
          "name": "votos",
          "type": "uint256"
        }
      ],
      "stateMutability": "view",
      "type": "function"
    },
    {
      "inputs": [
        {
          "internalType": "uint256",
          "name": "_candidatoId",
          "type": "uint256"
        }
      ],
      "name": "getVotos",
      "outputs": [
        {
          "internalType": "uint256",
          "name": "",
          "type": "uint256"
        }
      ],
      "stateMutability": "view",
      "type": "function"
    },
    {
      "inputs": [],
      "name": "totalCandidatos",
      "outputs": [
        {
          "internalType": "uint256",
          "name": "",
          "type": "uint256"
        }
      ],
      "stateMutability": "view",
      "type": "function"
    },
    {
      "inputs": [
        {
          "internalType": "address",
          "name": "",
          "type": "address"
        }
      ],
      "name": "votantes",
      "outputs": [
        {
          "internalType": "bool",
          "name": "",
          "type": "bool"
        }
      ],
      "stateMutability": "view",
      "type": "function"
    },
    {
      "inputs": [
        {
          "internalType": "uint256",
          "name": "_candidatoId",
          "type": "uint256"
        }
      ],
      "name": "votar",
      "outputs": [],
      "stateMutability": "nonpayable",
      "type": "function"
    }
  ],
  "bytecode": "0x60806040523480156200001157600080fd5b50620000586040518060400160405280600581526020017f416c696365000000000000000000000000000000000000000000000000000000815250620000a460201b60201c565b6200009e6040518060400160405280600381526020017f426f620000000000000000000000000000000000000000000000000000000000815250620000a460201b60201c565b620002c5565b60016000815480929190620000b99062000219565b919050555060405180606001604052806001548152602001828152602001600081525060008060015481526020019081526020016000206000820151816000015560208201518160010190805190602001906200011892919062000129565b506040820151816002015590505050565b8280546200013790620001e3565b90600052602060002090601f0160209004810192826200015b5760008555620001a7565b82601f106200017657805160ff1916838001178555620001a7565b82800160010185558215620001a7579182015b82811115620001a657825182559160200191906001019062000189565b5b509050620001b69190620001ba565b5090565b5b80821115620001d5576000816000905550600101620001bb565b5090565b6000819050919050565b60006002820490506001821680620001fc57607f821691505b6020821081141562000213576200021262000296565b5b50919050565b60006200022682620001d9565b91507fffffffffffffffffffffffffffffffffffffffffffffffffffffffffffffffff8214156200025c576200025b62000267565b5b600182019050919050565b7f4e487b7100000000000000000000000000000000000000000000000000000000600052601160045260246000fd5b7f4e487b7100000000000000000000000000000000000000000000000000000000600052602260045260246000fd5b6107ec80620002d56000396000f3fe608060405234801561001057600080fd5b50600436106100575760003560e01c8063216068311461005c5780638f023f8514610078578063a92284d0146100aa578063bc83abde146100da578063f485c679146100f8575b600080fd5b61007660048036038101906100719190610453565b610128565b005b610092600480360381019061008d9190610453565b6102b9565b6040516100a1939291906105c9565b60405180910390f35b6100c460048036038101906100bf919061042a565b61036b565b6040516100d19190610553565b60405180910390f35b6100e261038b565b6040516100ef91906105ae565b60405180910390f35b610112600480360381019061010d9190610453565b610391565b60405161011f91906105ae565b60405180910390f35b600260003373ffffffffffffffffffffffffffffffffffffffff1673ffffffffffffffffffffffffffffffffffffffff16815260200190815260200160002060009054906101000a900460ff16156101b5576040517f08c379a00000000000000000000000000000000000000000000000000000000081526004016101ac9061058e565b60405180910390fd5b6000811180156101c757506001548111155b610206576040517f08c379a00000000000000000000000000000000000000000000000000000000081526004016101fd9061056e565b60405180910390fd5b6001600260003373ffffffffffffffffffffffffffffffffffffffff1673ffffffffffffffffffffffffffffffffffffffff16815260200190815260200160002060006101000a81548160ff0219169083151502179055506000808281526020019081526020016000206002016000815480929190610284906106d0565b9190505550807f652eeaa57ccbb2f4fa0be02c6b0e7c5fadf5452a75bbb3fccc36fea46443156c60405160405180910390a250565b60006020528060005260406000206000915090508060000154908060010180546102e29061069e565b80601f016020809104026020016040519081016040528092919081815260200182805461030e9061069e565b801561035b5780601f106103305761010080835404028352916020019161035b565b820191906000526020600020905b81548152906001019060200180831161033e57829003601f168201915b5050505050908060020154905083565b60026020528060005260406000206000915054906101000a900460ff1681565b60015481565b600080821180156103a457506001548211155b6103e3576040517f08c379a00000000000000000000000000000000000000000000000000000000081526004016103da9061056e565b60405180910390fd5b600080838152602001908152602001600020600201549050919050565b60008135905061040f81610788565b92915050565b6000813590506104248161079f565b92915050565b60006020828403121561043c57600080fd5b600061044a84828501610400565b91505092915050565b60006020828403121561046557600080fd5b600061047384828501610415565b91505092915050565b61048581610635565b82525050565b600061049682610607565b6104a08185610612565b93506104b081856020860161066b565b6104b981610777565b840191505092915050565b60006104d1601383610612565b91507f43616e64696461746f20696e76616c69646f2e000000000000000000000000006000830152602082019050919050565b6000610511600e83610612565b91507f566f6365206a6120766f746f752e0000000000000000000000000000000000006000830152602082019050919050565b61054d81610661565b82525050565b6000602082019050610568600083018461047c565b92915050565b60006020820190508181036000830152610587816104c4565b9050919050565b600060208201905081810360008301526105a781610504565b9050919050565b60006020820190506105c36000830184610544565b92915050565b60006060820190506105de6000830186610544565b81810360208301526105f0818561048b565b90506105ff6040830184610544565b949350505050565b600081519050919050565b600082825260208201905092915050565b600061062e82610641565b9050919050565b60008115159050919050565b600073ffffffffffffffffffffffffffffffffffffffff82169050919050565b6000819050919050565b60005b8381101561068957808201518184015260208101905061066e565b83811115610698576000848401525b50505050565b600060028204905060018216806106b657607f821691505b602082108114156106ca576106c9610748565b5b50919050565b60006106db82610661565b91507fffffffffffffffffffffffffffffffffffffffffffffffffffffffffffffffff82141561070e5761070d610719565b5b600182019050919050565b7f4e487b7100000000000000000000000000000000000000000000000000000000600052601160045260246000fd5b7f4e487b7100000000000000000000000000000000000000000000000000000000600052602260045260246000fd5b6000601f19601f8301169050919050565b61079181610623565b811461079c57600080fd5b50565b6107a881610661565b81146107b357600080fd5b5056fea2646970667358221220756e3261a631acdf566b5cdd24718a9850ae438b4fa3a24cc35d7a5aa2adcff364736f6c63430008000033",
  "linkReferences": {},
  "deployedLinkReferences": {}
}